{
  "contractName": "DevToken",
  "abi": [
    {
      "inputs": [
        {
          "internalType": "string",
          "name": "token_name",
          "type": "string"
        },
        {
          "internalType": "string",
          "name": "short_symbol",
          "type": "string"
        },
        {
          "internalType": "uint8",
          "name": "token_decimals",
          "type": "uint8"
        },
        {
          "internalType": "uint256",
          "name": "token_total_supply",
          "type": "uint256"
        }
      ],
      "stateMutability": "nonpayable",
      "type": "constructor"
    },
    {
      "anonymous": false,
      "inputs": [
        {
          "indexed": true,
          "internalType": "address",
          "name": "owner",
          "type": "address"
        },
        {
          "indexed": true,
          "internalType": "address",
          "name": "spender",
          "type": "address"
        },
        {
          "indexed": false,
          "internalType": "uint256",
          "name": "value",
          "type": "uint256"
        }
      ],
      "name": "Approval",
      "type": "event"
    },
    {
      "anonymous": false,
      "inputs": [
        {
          "indexed": true,
          "internalType": "address",
          "name": "previousOwner",
          "type": "address"
        },
        {
          "indexed": true,
          "internalType": "address",
          "name": "newOwner",
          "type": "address"
        }
      ],
      "name": "OwnershipTransferred",
      "type": "event"
    },
    {
      "anonymous": false,
      "inputs": [
        {
          "indexed": true,
          "internalType": "address",
          "name": "from",
          "type": "address"
        },
        {
          "indexed": true,
          "internalType": "address",
          "name": "to",
          "type": "address"
        },
        {
          "indexed": false,
          "internalType": "uint256",
          "name": "value",
          "type": "uint256"
        }
      ],
      "name": "Transfer",
      "type": "event"
    },
    {
      "inputs": [],
      "name": "owner",
      "outputs": [
        {
          "internalType": "address",
          "name": "",
          "type": "address"
        }
      ],
      "stateMutability": "view",
      "type": "function"
    },
    {
      "inputs": [],
      "name": "renounceOwnership",
      "outputs": [],
      "stateMutability": "nonpayable",
      "type": "function"
    },
    {
      "inputs": [
        {
          "internalType": "address",
          "name": "newOwner",
          "type": "address"
        }
      ],
      "name": "transferOwnership",
      "outputs": [],
      "stateMutability": "nonpayable",
      "type": "function"
    },
    {
      "inputs": [],
      "name": "decimals",
      "outputs": [
        {
          "internalType": "uint8",
          "name": "",
          "type": "uint8"
        }
      ],
      "stateMutability": "view",
      "type": "function"
    },
    {
      "inputs": [],
      "name": "symbol",
      "outputs": [
        {
          "internalType": "string",
          "name": "",
          "type": "string"
        }
      ],
      "stateMutability": "view",
      "type": "function"
    },
    {
      "inputs": [],
      "name": "name",
      "outputs": [
        {
          "internalType": "string",
          "name": "",
          "type": "string"
        }
      ],
      "stateMutability": "view",
      "type": "function"
    },
    {
      "inputs": [],
      "name": "totalSupply",
      "outputs": [
        {
          "internalType": "uint256",
          "name": "",
          "type": "uint256"
        }
      ],
      "stateMutability": "view",
      "type": "function"
    },
    {
      "inputs": [
        {
          "internalType": "address",
          "name": "account",
          "type": "address"
        }
      ],
      "name": "balanceOf",
      "outputs": [
        {
          "internalType": "uint256",
          "name": "",
          "type": "uint256"
        }
      ],
      "stateMutability": "view",
      "type": "function"
    },
    {
      "inputs": [
        {
          "internalType": "address",
          "name": "account",
          "type": "address"
        },
        {
          "internalType": "uint256",
          "name": "amount",
          "type": "uint256"
        }
      ],
      "name": "mint",
      "outputs": [
        {
          "internalType": "bool",
          "name": "",
          "type": "bool"
        }
      ],
      "stateMutability": "nonpayable",
      "type": "function"
    },
    {
      "inputs": [
        {
          "internalType": "address",
          "name": "account",
          "type": "address"
        },
        {
          "internalType": "uint256",
          "name": "amount",
          "type": "uint256"
        }
      ],
      "name": "burn",
      "outputs": [
        {
          "internalType": "bool",
          "name": "",
          "type": "bool"
        }
      ],
      "stateMutability": "nonpayable",
      "type": "function"
    },
    {
      "inputs": [
        {
          "internalType": "address",
          "name": "recipient",
          "type": "address"
        },
        {
          "internalType": "uint256",
          "name": "amount",
          "type": "uint256"
        }
      ],
      "name": "transfer",
      "outputs": [
        {
          "internalType": "bool",
          "name": "",
          "type": "bool"
        }
      ],
      "stateMutability": "nonpayable",
      "type": "function"
    },
    {
      "inputs": [],
      "name": "getOwner",
      "outputs": [
        {
          "internalType": "address",
          "name": "",
          "type": "address"
        }
      ],
      "stateMutability": "view",
      "type": "function"
    },
    {
      "inputs": [
        {
          "internalType": "address",
          "name": "owner",
          "type": "address"
        },
        {
          "internalType": "address",
          "name": "spender",
          "type": "address"
        }
      ],
      "name": "allowance",
      "outputs": [
        {
          "internalType": "uint256",
          "name": "",
          "type": "uint256"
        }
      ],
      "stateMutability": "view",
      "type": "function"
    },
    {
      "inputs": [
        {
          "internalType": "address",
          "name": "spender",
          "type": "address"
        },
        {
          "internalType": "uint256",
          "name": "amount",
          "type": "uint256"
        }
      ],
      "name": "approve",
      "outputs": [
        {
          "internalType": "bool",
          "name": "",
          "type": "bool"
        }
      ],
      "stateMutability": "nonpayable",
      "type": "function"
    },
    {
      "inputs": [
        {
          "internalType": "address",
          "name": "spender",
          "type": "address"
        },
        {
          "internalType": "address",
          "name": "recipient",
          "type": "address"
        },
        {
          "internalType": "uint256",
          "name": "amount",
          "type": "uint256"
        }
      ],
      "name": "transferFrom",
      "outputs": [
        {
          "internalType": "bool",
          "name": "",
          "type": "bool"
        }
      ],
      "stateMutability": "nonpayable",
      "type": "function"
    },
    {
      "inputs": [
        {
          "internalType": "address",
          "name": "spender",
          "type": "address"
        },
        {
          "internalType": "uint256",
          "name": "amount",
          "type": "uint256"
        }
      ],
      "name": "increaseAllowance",
      "outputs": [
        {
          "internalType": "bool",
          "name": "",
          "type": "bool"
        }
      ],
      "stateMutability": "nonpayable",
      "type": "function"
    },
    {
      "inputs": [
        {
          "internalType": "address",
          "name": "spender",
          "type": "address"
        },
        {
          "internalType": "uint256",
          "name": "amount",
          "type": "uint256"
        }
      ],
      "name": "decreaseAllowance",
      "outputs": [
        {
          "internalType": "bool",
          "name": "",
          "type": "bool"
        }
      ],
      "stateMutability": "nonpayable",
      "type": "function"
    }
  ],
  "bytecode": "0x60806040523480156200001157600080fd5b50604051620025233803806200252383398181016040528101906200003791906200034c565b336000806101000a81548173ffffffffffffffffffffffffffffffffffffffff021916908373ffffffffffffffffffffffffffffffffffffffff16021790555060008054906101000a900473ffffffffffffffffffffffffffffffffffffffff1673ffffffffffffffffffffffffffffffffffffffff16600073ffffffffffffffffffffffffffffffffffffffff167f8be0079c531659141344cd1fd0a4f28419497f9722a3daafe3b4186f6b6457e060405160405180910390a383600490805190602001906200010a929190620001fc565b50826003908051906020019062000123929190620001fc565b5081600260006101000a81548160ff021916908360ff1602179055508060018190555080600560003373ffffffffffffffffffffffffffffffffffffffff1673ffffffffffffffffffffffffffffffffffffffff168152602001908152602001600020819055503373ffffffffffffffffffffffffffffffffffffffff16600073ffffffffffffffffffffffffffffffffffffffff167fddf252ad1be2c89b69c2b068fc378daa952ba7f163c4a11628f55a4df523b3ef83604051620001ea9190620003fb565b60405180910390a350505050620005d3565b8280546200020a90620004c4565b90600052602060002090601f0160209004810192826200022e57600085556200027a565b82601f106200024957805160ff19168380011785556200027a565b828001600101855582156200027a579182015b82811115620002795782518255916020019190600101906200025c565b5b5090506200028991906200028d565b5090565b5b80821115620002a85760008160009055506001016200028e565b5090565b6000620002c3620002bd8462000441565b62000418565b905082815260208101848484011115620002dc57600080fd5b620002e98482856200048e565b509392505050565b600082601f8301126200030357600080fd5b815162000315848260208601620002ac565b91505092915050565b6000815190506200032f816200059f565b92915050565b6000815190506200034681620005b9565b92915050565b600080600080608085870312156200036357600080fd5b600085015167ffffffffffffffff8111156200037e57600080fd5b6200038c87828801620002f1565b945050602085015167ffffffffffffffff811115620003aa57600080fd5b620003b887828801620002f1565b9350506040620003cb8782880162000335565b9250506060620003de878288016200031e565b91505092959194509250565b620003f58162000477565b82525050565b6000602082019050620004126000830184620003ea565b92915050565b60006200042462000437565b9050620004328282620004fa565b919050565b6000604051905090565b600067ffffffffffffffff8211156200045f576200045e6200055f565b5b6200046a826200058e565b9050602081019050919050565b6000819050919050565b600060ff82169050919050565b60005b83811015620004ae57808201518184015260208101905062000491565b83811115620004be576000848401525b50505050565b60006002820490506001821680620004dd57607f821691505b60208210811415620004f457620004f362000530565b5b50919050565b62000505826200058e565b810181811067ffffffffffffffff821117156200052757620005266200055f565b5b80604052505050565b7f4e487b7100000000000000000000000000000000000000000000000000000000600052602260045260246000fd5b7f4e487b7100000000000000000000000000000000000000000000000000000000600052604160045260246000fd5b6000601f19601f8301169050919050565b620005aa8162000477565b8114620005b657600080fd5b50565b620005c48162000481565b8114620005d057600080fd5b50565b611f4080620005e36000396000f3fe608060405234801561001057600080fd5b506004361061010b5760003560e01c8063715018a6116100a25780639dc29fac116100715780639dc29fac146102be578063a457c2d7146102ee578063a9059cbb1461031e578063dd62ed3e1461034e578063f2fde38b1461037e5761010b565b8063715018a61461025a578063893d20e8146102645780638da5cb5b1461028257806395d89b41146102a05761010b565b8063313ce567116100de578063313ce567146101ac57806339509351146101ca57806340c10f19146101fa57806370a082311461022a5761010b565b806306fdde0314610110578063095ea7b31461012e57806318160ddd1461015e57806323b872dd1461017c575b600080fd5b61011861039a565b6040516101259190611888565b60405180910390f35b61014860048036038101906101439190611620565b61042c565b604051610155919061186d565b60405180910390f35b610166610443565b6040516101739190611a0a565b60405180910390f35b610196600480360381019061019191906115d1565b61044d565b6040516101a3919061186d565b60405180910390f35b6101b46105b6565b6040516101c19190611a25565b60405180910390f35b6101e460048036038101906101df9190611620565b6105cd565b6040516101f1919061186d565b60405180910390f35b610214600480360381019061020f9190611620565b61066b565b604051610221919061186d565b60405180910390f35b610244600480360381019061023f919061156c565b61070f565b6040516102519190611a0a565b60405180910390f35b610262610758565b005b61026c6108a4565b6040516102799190611852565b60405180910390f35b61028a6108b3565b6040516102979190611852565b60405180910390f35b6102a86108dc565b6040516102b59190611888565b60405180910390f35b6102d860048036038101906102d39190611620565b61096e565b6040516102e5919061186d565b60405180910390f35b61030860048036038101906103039190611620565b610a12565b604051610315919061186d565b60405180910390f35b61033860048036038101906103339190611620565b610ab0565b604051610345919061186d565b60405180910390f35b61036860048036038101906103639190611595565b610ac7565b6040516103759190611a0a565b60405180910390f35b6103986004803603810190610393919061156c565b610b4e565b005b6060600480546103a990611b6e565b80601f01602080910402602001604051908101604052809291908181526020018280546103d590611b6e565b80156104225780601f106103f757610100808354040283529160200191610422565b820191906000526020600020905b81548152906001019060200180831161040557829003601f168201915b5050505050905090565b6000610439338484610be8565b6001905092915050565b6000600154905090565b600081600660008673ffffffffffffffffffffffffffffffffffffffff1673ffffffffffffffffffffffffffffffffffffffff16815260200190815260200160002060003373ffffffffffffffffffffffffffffffffffffffff1673ffffffffffffffffffffffffffffffffffffffff16815260200190815260200160002054101561050e576040517f08c379a00000000000000000000000000000000000000000000000000000000081526004016105059061192a565b60405180910390fd5b610519848484610db3565b6105ab843384600660008973ffffffffffffffffffffffffffffffffffffffff1673ffffffffffffffffffffffffffffffffffffffff16815260200190815260200160002060003373ffffffffffffffffffffffffffffffffffffffff1673ffffffffffffffffffffffffffffffffffffffff168152602001908152602001600020546105a69190611ab2565b610be8565b600190509392505050565b6000600260009054906101000a900460ff16905090565b6000610661338484600660003373ffffffffffffffffffffffffffffffffffffffff1673ffffffffffffffffffffffffffffffffffffffff16815260200190815260200160002060008873ffffffffffffffffffffffffffffffffffffffff1673ffffffffffffffffffffffffffffffffffffffff1681526020019081526020016000205461065c9190611ab2565b610be8565b6001905092915050565b60003373ffffffffffffffffffffffffffffffffffffffff1660008054906101000a900473ffffffffffffffffffffffffffffffffffffffff1673ffffffffffffffffffffffffffffffffffffffff16146106fb576040517f08c379a00000000000000000000000000000000000000000000000000000000081526004016106f2906118aa565b60405180910390fd5b610705838361109b565b6001905092915050565b6000600560008373ffffffffffffffffffffffffffffffffffffffff1673ffffffffffffffffffffffffffffffffffffffff168152602001908152602001600020549050919050565b3373ffffffffffffffffffffffffffffffffffffffff1660008054906101000a900473ffffffffffffffffffffffffffffffffffffffff1673ffffffffffffffffffffffffffffffffffffffff16146107e6576040517f08c379a00000000000000000000000000000000000000000000000000000000081526004016107dd906118aa565b60405180910390fd5b600073ffffffffffffffffffffffffffffffffffffffff1660008054906101000a900473ffffffffffffffffffffffffffffffffffffffff1673ffffffffffffffffffffffffffffffffffffffff167f8be0079c531659141344cd1fd0a4f28419497f9722a3daafe3b4186f6b6457e060405160405180910390a360008060006101000a81548173ffffffffffffffffffffffffffffffffffffffff021916908373ffffffffffffffffffffffffffffffffffffffff160217905550565b60006108ae6108b3565b905090565b60008060009054906101000a900473ffffffffffffffffffffffffffffffffffffffff16905090565b6060600380546108eb90611b6e565b80601f016020809104026020016040519081016040528092919081815260200182805461091790611b6e565b80156109645780601f1061093957610100808354040283529160200191610964565b820191906000526020600020905b81548152906001019060200180831161094757829003601f168201915b5050505050905090565b60003373ffffffffffffffffffffffffffffffffffffffff1660008054906101000a900473ffffffffffffffffffffffffffffffffffffffff1673ffffffffffffffffffffffffffffffffffffffff16146109fe576040517f08c379a00000000000000000000000000000000000000000000000000000000081526004016109f5906118aa565b60405180910390fd5b610a088383611217565b6001905092915050565b6000610aa6338484600660003373ffffffffffffffffffffffffffffffffffffffff1673ffffffffffffffffffffffffffffffffffffffff16815260200190815260200160002060008873ffffffffffffffffffffffffffffffffffffffff1673ffffffffffffffffffffffffffffffffffffffff16815260200190815260200160002054610aa19190611ab2565b610be8565b6001905092915050565b6000610abd338484610db3565b6001905092915050565b6000600660008473ffffffffffffffffffffffffffffffffffffffff1673ffffffffffffffffffffffffffffffffffffffff16815260200190815260200160002060008373ffffffffffffffffffffffffffffffffffffffff1673ffffffffffffffffffffffffffffffffffffffff16815260200190815260200160002054905092915050565b3373ffffffffffffffffffffffffffffffffffffffff1660008054906101000a900473ffffffffffffffffffffffffffffffffffffffff1673ffffffffffffffffffffffffffffffffffffffff1614610bdc576040517f08c379a0000000000000000000000000000000000000000000000000000000008152600401610bd3906118aa565b60405180910390fd5b610be581611415565b50565b600073ffffffffffffffffffffffffffffffffffffffff168373ffffffffffffffffffffffffffffffffffffffff161415610c58576040517f08c379a0000000000000000000000000000000000000000000000000000000008152600401610c4f9061198a565b60405180910390fd5b600073ffffffffffffffffffffffffffffffffffffffff168273ffffffffffffffffffffffffffffffffffffffff161415610cc8576040517f08c379a0000000000000000000000000000000000000000000000000000000008152600401610cbf906119ca565b60405180910390fd5b80600660008573ffffffffffffffffffffffffffffffffffffffff1673ffffffffffffffffffffffffffffffffffffffff16815260200190815260200160002060008473ffffffffffffffffffffffffffffffffffffffff1673ffffffffffffffffffffffffffffffffffffffff168152602001908152602001600020819055508173ffffffffffffffffffffffffffffffffffffffff168373ffffffffffffffffffffffffffffffffffffffff167f8c5be1e5ebec7d5bd14f71427d1e84f3dd0314c0f7b2291e5b200ac8c7c3b92583604051610da69190611a0a565b60405180910390a3505050565b600073ffffffffffffffffffffffffffffffffffffffff168373ffffffffffffffffffffffffffffffffffffffff161415610e23576040517f08c379a0000000000000000000000000000000000000000000000000000000008152600401610e1a9061196a565b60405180910390fd5b600073ffffffffffffffffffffffffffffffffffffffff168273ffffffffffffffffffffffffffffffffffffffff161415610e93576040517f08c379a0000000000000000000000000000000000000000000000000000000008152600401610e8a906119aa565b60405180910390fd5b80600560008573ffffffffffffffffffffffffffffffffffffffff1673ffffffffffffffffffffffffffffffffffffffff168152602001908152602001600020541015610f15576040517f08c379a0000000000000000000000000000000000000000000000000000000008152600401610f0c9061190a565b60405180910390fd5b80600560008573ffffffffffffffffffffffffffffffffffffffff1673ffffffffffffffffffffffffffffffffffffffff16815260200190815260200160002054610f609190611ab2565b600560008573ffffffffffffffffffffffffffffffffffffffff1673ffffffffffffffffffffffffffffffffffffffff1681526020019081526020016000208190555080600560008473ffffffffffffffffffffffffffffffffffffffff1673ffffffffffffffffffffffffffffffffffffffff16815260200190815260200160002054610fee9190611a5c565b600560008473ffffffffffffffffffffffffffffffffffffffff1673ffffffffffffffffffffffffffffffffffffffff168152602001908152602001600020819055508173ffffffffffffffffffffffffffffffffffffffff168373ffffffffffffffffffffffffffffffffffffffff167fddf252ad1be2c89b69c2b068fc378daa952ba7f163c4a11628f55a4df523b3ef8360405161108e9190611a0a565b60405180910390a3505050565b600073ffffffffffffffffffffffffffffffffffffffff168273ffffffffffffffffffffffffffffffffffffffff16141561110b576040517f08c379a0000000000000000000000000000000000000000000000000000000008152600401611102906118ea565b60405180910390fd5b806001546111199190611a5c565b60018190555080600560008473ffffffffffffffffffffffffffffffffffffffff1673ffffffffffffffffffffffffffffffffffffffff1681526020019081526020016000205461116a9190611a5c565b600560008473ffffffffffffffffffffffffffffffffffffffff1673ffffffffffffffffffffffffffffffffffffffff168152602001908152602001600020819055508173ffffffffffffffffffffffffffffffffffffffff16600073ffffffffffffffffffffffffffffffffffffffff167fddf252ad1be2c89b69c2b068fc378daa952ba7f163c4a11628f55a4df523b3ef8360405161120b9190611a0a565b60405180910390a35050565b600073ffffffffffffffffffffffffffffffffffffffff168273ffffffffffffffffffffffffffffffffffffffff161415611287576040517f08c379a000000000000000000000000000000000000000000000000000000000815260040161127e9061194a565b60405180910390fd5b80600560008473ffffffffffffffffffffffffffffffffffffffff1673ffffffffffffffffffffffffffffffffffffffff168152602001908152602001600020541015611309576040517f08c379a0000000000000000000000000000000000000000000000000000000008152600401611300906119ea565b60405180910390fd5b80600560008473ffffffffffffffffffffffffffffffffffffffff1673ffffffffffffffffffffffffffffffffffffffff168152602001908152602001600020546113549190611ab2565b600560008473ffffffffffffffffffffffffffffffffffffffff1673ffffffffffffffffffffffffffffffffffffffff16815260200190815260200160002081905550806001546113a59190611ab2565b600181905550600073ffffffffffffffffffffffffffffffffffffffff168273ffffffffffffffffffffffffffffffffffffffff167fddf252ad1be2c89b69c2b068fc378daa952ba7f163c4a11628f55a4df523b3ef836040516114099190611a0a565b60405180910390a35050565b600073ffffffffffffffffffffffffffffffffffffffff168173ffffffffffffffffffffffffffffffffffffffff161415611485576040517f08c379a000000000000000000000000000000000000000000000000000000000815260040161147c906118ca565b60405180910390fd5b8073ffffffffffffffffffffffffffffffffffffffff1660008054906101000a900473ffffffffffffffffffffffffffffffffffffffff1673ffffffffffffffffffffffffffffffffffffffff167f8be0079c531659141344cd1fd0a4f28419497f9722a3daafe3b4186f6b6457e060405160405180910390a3806000806101000a81548173ffffffffffffffffffffffffffffffffffffffff021916908373ffffffffffffffffffffffffffffffffffffffff16021790555050565b60008135905061155181611edc565b92915050565b60008135905061156681611ef3565b92915050565b60006020828403121561157e57600080fd5b600061158c84828501611542565b91505092915050565b600080604083850312156115a857600080fd5b60006115b685828601611542565b92505060206115c785828601611542565b9150509250929050565b6000806000606084860312156115e657600080fd5b60006115f486828701611542565b935050602061160586828701611542565b925050604061161686828701611557565b9150509250925092565b6000806040838503121561163357600080fd5b600061164185828601611542565b925050602061165285828601611557565b9150509250929050565b61166581611ae6565b82525050565b61167481611af8565b82525050565b600061168582611a40565b61168f8185611a4b565b935061169f818560208601611b3b565b6116a881611bfe565b840191505092915050565b60006116c0602a83611a4b565b91506116cb82611c0f565b604082019050919050565b60006116e3602683611a4b565b91506116ee82611c5e565b604082019050919050565b6000611706601b83611a4b565b915061171182611cad565b602082019050919050565b6000611729602e83611a4b565b915061173482611cd6565b604082019050919050565b600061174c603483611a4b565b915061175782611d25565b604082019050919050565b600061176f601d83611a4b565b915061177a82611d74565b602082019050919050565b6000611792601a83611a4b565b915061179d82611d9d565b602082019050919050565b60006117b5602d83611a4b565b91506117c082611dc6565b604082019050919050565b60006117d8601883611a4b565b91506117e382611e15565b602082019050919050565b60006117fb602b83611a4b565b915061180682611e3e565b604082019050919050565b600061181e602683611a4b565b915061182982611e8d565b604082019050919050565b61183d81611b24565b82525050565b61184c81611b2e565b82525050565b6000602082019050611867600083018461165c565b92915050565b6000602082019050611882600083018461166b565b92915050565b600060208201905081810360008301526118a2818461167a565b905092915050565b600060208201905081810360008301526118c3816116b3565b9050919050565b600060208201905081810360008301526118e3816116d6565b9050919050565b60006020820190508181036000830152611903816116f9565b9050919050565b600060208201905081810360008301526119238161171c565b9050919050565b600060208201905081810360008301526119438161173f565b9050919050565b6000602082019050818103600083015261196381611762565b9050919050565b6000602082019050818103600083015261198381611785565b9050919050565b600060208201905081810360008301526119a3816117a8565b9050919050565b600060208201905081810360008301526119c3816117cb565b9050919050565b600060208201905081810360008301526119e3816117ee565b9050919050565b60006020820190508181036000830152611a0381611811565b9050919050565b6000602082019050611a1f6000830184611834565b92915050565b6000602082019050611a3a6000830184611843565b92915050565b600081519050919050565b600082825260208201905092915050565b6000611a6782611b24565b9150611a7283611b24565b9250827fffffffffffffffffffffffffffffffffffffffffffffffffffffffffffffffff03821115611aa757611aa6611ba0565b5b828201905092915050565b6000611abd82611b24565b9150611ac883611b24565b925082821015611adb57611ada611ba0565b5b828203905092915050565b6000611af182611b04565b9050919050565b60008115159050919050565b600073ffffffffffffffffffffffffffffffffffffffff82169050919050565b6000819050919050565b600060ff82169050919050565b60005b83811015611b59578082015181840152602081019050611b3e565b83811115611b68576000848401525b50505050565b60006002820490506001821680611b8657607f821691505b60208210811415611b9a57611b99611bcf565b5b50919050565b7f4e487b7100000000000000000000000000000000000000000000000000000000600052601160045260246000fd5b7f4e487b7100000000000000000000000000000000000000000000000000000000600052602260045260246000fd5b6000601f19601f8301169050919050565b7f4f776e61626c653a206f6e6c79206f776e65722063616e2063616c6c2074686960008201527f732066756e6374696f6e00000000000000000000000000000000000000000000602082015250565b7f4f776e61626c653a206e6577206f776e657220697320746865207a65726f206160008201527f6464726573730000000000000000000000000000000000000000000000000000602082015250565b7f43616e6e6f74206d696e7420746f207a65726f20616464726573730000000000600082015250565b7f43616e6e6f74207472616e73666572206d6f7265207468616e20796f7572206160008201527f63636f756e742062616c616e6365000000000000000000000000000000000000602082015250565b7f446576546f6b656e3a20596f752063616e6e6f74207370656e6420746861742060008201527f6d756368206f6e2074686973206163636f756e74000000000000000000000000602082015250565b7f43616e6e6f74206275726e2066726f6d207a65726f2061646472657373000000600082015250565b7f5472616e736665722066726f6d207a65726f2061646472657373000000000000600082015250565b7f446576546f6b656e3a20417070726f76652063616e6e6f742062652066726f6d60008201527f207a65726f206164647265737300000000000000000000000000000000000000602082015250565b7f5472616e7366657220746f207a65726f20616464726573730000000000000000600082015250565b7f446576546f6b656e3a20417070726f76652063616e6e6f7420626520746f207a60008201527f65726f2061646472657373000000000000000000000000000000000000000000602082015250565b7f43616e6e6f74206275726e206d6f7265207468616e20746865206163636f756e60008201527f74206f776e730000000000000000000000000000000000000000000000000000602082015250565b611ee581611ae6565b8114611ef057600080fd5b50565b611efc81611b24565b8114611f0757600080fd5b5056fea264697066735822122024abca7627c661383b9f7281484311c491c4eaf35bbd2c74f1625676bc798d4164736f6c63430008040033",
  "immutableReferences": {},
  "source": "// SPDX-License-Identifier: MIT\npragma solidity ^0.8.4;\nimport \"./Ownable.sol\";\nimport \"./Stakable.sol\";\n\ncontract DevToken is Ownable, Stakable {\n\n  uint256 private _totalSupply;\n  uint8 private _decimals;\n  string private _symbol;\n  string private _name;\n  mapping (address => uint256) private _balances;\n  mapping (address => mapping(address => uint256)) private _allowances;\n\n  event Transfer (address indexed from, address indexed to, uint256 value);\n  event Approval (address indexed owner, address indexed spender, uint256 value);\n\n  constructor (string memory token_name, string memory short_symbol, uint8 token_decimals, uint256 token_total_supply) {\n    _name   = token_name;\n    _symbol = short_symbol;\n    _decimals = token_decimals;\n    _totalSupply = token_total_supply;\n    _balances[msg.sender] = token_total_supply;\n    emit Transfer (address(0), msg.sender, token_total_supply);\n  }\n\n  function decimals() external view returns (uint8){\n    return _decimals;\n  }\n\n  function symbol() external view returns (string memory){\n    return _symbol;\n  }\n\n  function name() external view returns (string memory){\n    return _name;\n  }\n  \n  function totalSupply() external view returns (uint256){\n    return _totalSupply;\n  }\n\n  function balanceOf(address account) external view returns (uint256){\n    return _balances[account];\n  } \n\n  function mint (address account, uint256 amount) public onlyOwner returns (bool) {\n    _mint(account, amount);\n    return true;\n  }\n\n  function _mint (address account, uint256 amount) internal {\n    require(account != address(0), \"Cannot mint to zero address\");\n    _totalSupply = _totalSupply + amount;\n    _balances[account] = _balances[account] + amount;\n    emit Transfer(address(0), account, amount);\n  }\n\n  function burn (address account, uint256 amount) public onlyOwner returns (bool) {\n    _burn(account, amount);\n    return true;\n  }\n\n  function _burn (address account, uint256 amount) internal {\n    require(account != address(0), \"Cannot burn from zero address\");\n    require(_balances[account] >= amount, \"Cannot burn more than the account owns\");\n    _balances[account] = _balances[account] - amount;\n    _totalSupply = _totalSupply - amount;\n    emit Transfer (account, address(0), amount);\n  }\n\n\n  function transfer(address recipient, uint256 amount) external returns (bool){\n    _transfer(msg.sender, recipient, amount);\n    return true;\n  }\n\n  function _transfer(address sender, address recipient, uint256 amount) internal {\n    require(sender != address(0), \"Transfer from zero address\");\n    require(recipient != address(0), \"Transfer to zero address\");\n    require(_balances[sender] >= amount, \"Cannot transfer more than your account balance\");\n    _balances[sender] = _balances[sender] - amount;\n    _balances[recipient] = _balances[recipient] + amount;\n    emit Transfer (sender, recipient, amount);\n  }\n\n  function getOwner() external view returns (address) {\n    return owner();\n  }\n\n  function allowance(address owner, address spender) external view returns (uint256) {\n    return _allowances[owner][spender];\n  }\n\n  function approve(address spender, uint256 amount) external returns (bool) {\n    _approve(msg.sender, spender, amount);\n    return true;\n  }\n\n  function _approve(address owner, address spender, uint256 amount) internal {\n    require(owner != address(0), \"DevToken: Approve cannot be from zero address\");\n    require(spender != address(0), \"DevToken: Approve cannot be to zero address\");\n    _allowances[owner][spender] = amount;\n    emit Approval(owner, spender, amount);\n  }\n\n  function transferFrom(address spender, address recipient, uint256 amount) external returns (bool) {\n    require(_allowances[spender][msg.sender] >= amount, \"DevToken: You cannot spend that much on this account\");\n    _transfer(spender, recipient, amount);\n    _approve(spender, msg.sender, _allowances[spender][msg.sender]-amount);\n    return true;\n  }\n\n  function increaseAllowance(address spender, uint256 amount) public returns (bool) {\n    _approve(msg.sender, spender, _allowances[msg.sender][spender]-amount);\n    return true;\n  }\n\n  function decreaseAllowance(address spender, uint256 amount) public returns (bool) {\n    _approve(msg.sender, spender, _allowances[msg.sender][spender]-amount);\n    return true;\n  }\n\n\n}\n\n\n",
  "sourcePath": "/Users/kieranwilliams/Programming/solidity/BEP-Tut/contracts/DevToken.sol",
  "compiler": {
    "name": "solc",
    "version": "0.8.4+commit.c7e474f2.Emscripten.clang"
  },
  "schemaVersion": "3.4.2",
  "updatedAt": "2021-08-08T21:06:49.738Z",
  "devdoc": {
    "kind": "dev",
    "methods": {},
    "version": 1
  },
  "userdoc": {
    "kind": "user",
    "methods": {},
    "version": 1
  }
}